{
  "contractName": "Company",
  "abi": [
    {
      "inputs": [
        {
          "internalType": "address",
          "name": "_owner",
          "type": "address"
        }
      ],
      "stateMutability": "nonpayable",
      "type": "constructor"
    },
    {
      "inputs": [
        {
          "internalType": "uint256",
          "name": "",
          "type": "uint256"
        }
      ],
      "name": "Products",
      "outputs": [
        {
          "internalType": "uint256",
          "name": "",
          "type": "uint256"
        }
      ],
      "stateMutability": "view",
      "type": "function",
      "constant": true
    },
    {
      "inputs": [
        {
          "internalType": "uint256",
          "name": "",
          "type": "uint256"
        }
      ],
      "name": "hashcodeToTrue",
      "outputs": [
        {
          "internalType": "bool",
          "name": "",
          "type": "bool"
        }
      ],
      "stateMutability": "view",
      "type": "function",
      "constant": true
    },
    {
      "inputs": [],
      "name": "owner",
      "outputs": [
        {
          "internalType": "address",
          "name": "",
          "type": "address"
        }
      ],
      "stateMutability": "view",
      "type": "function",
      "constant": true
    },
    {
      "inputs": [
        {
          "internalType": "address",
          "name": "_ownerAddress",
          "type": "address"
        },
        {
          "internalType": "uint256[]",
          "name": "_products",
          "type": "uint256[]"
        }
      ],
      "name": "addProducts",
      "outputs": [
        {
          "internalType": "string",
          "name": "",
          "type": "string"
        }
      ],
      "stateMutability": "nonpayable",
      "type": "function"
    },
    {
      "inputs": [
        {
          "internalType": "uint256",
          "name": "_hashcode",
          "type": "uint256"
        }
      ],
      "name": "verifyProduct",
      "outputs": [
        {
          "internalType": "string",
          "name": "",
          "type": "string"
        }
      ],
      "stateMutability": "view",
      "type": "function",
      "constant": true
    },
    {
      "inputs": [
        {
          "internalType": "uint256",
          "name": "_hashcode",
          "type": "uint256"
        }
      ],
      "name": "removeProduct",
      "outputs": [
        {
          "internalType": "string",
          "name": "",
          "type": "string"
        }
      ],
      "stateMutability": "nonpayable",
      "type": "function"
    },
    {
      "inputs": [],
      "name": "getProductCount",
      "outputs": [
        {
          "internalType": "uint256",
          "name": "",
          "type": "uint256"
        }
      ],
      "stateMutability": "view",
      "type": "function",
      "constant": true
    }
  ],
  "bytecode": "0x608060405234801561001057600080fd5b50604051610e5e380380610e5e833981810160405281019061003291906100dc565b80600260006101000a81548173ffffffffffffffffffffffffffffffffffffffff021916908373ffffffffffffffffffffffffffffffffffffffff16021790555050610109565b600080fd5b600073ffffffffffffffffffffffffffffffffffffffff82169050919050565b60006100a98261007e565b9050919050565b6100b98161009e565b81146100c457600080fd5b50565b6000815190506100d6816100b0565b92915050565b6000602082840312156100f2576100f1610079565b5b6000610100848285016100c7565b91505092915050565b610d46806101186000396000f3fe608060405234801561001057600080fd5b506004361061007d5760003560e01c8063524e84621161005b578063524e8462146101005780635ee95cae146101305780638da5cb5b14610160578063dba3f6aa1461017e5761007d565b806320bf63ac1461008257806328a7b7a7146100b25780634a348da9146100e2575b600080fd5b61009c600480360381019061009791906108d7565b6101ae565b6040516100a991906109bb565b60405180910390f35b6100cc60048036038101906100c791906109dd565b6103b6565b6040516100d99190610a25565b60405180910390f35b6100ea6103d6565b6040516100f79190610a4f565b60405180910390f35b61011a600480360381019061011591906109dd565b6103e2565b60405161012791906109bb565b60405180910390f35b61014a600480360381019061014591906109dd565b610485565b60405161015791906109bb565b60405180910390f35b61016861068c565b6040516101759190610a79565b60405180910390f35b610198600480360381019061019391906109dd565b6106b2565b6040516101a59190610a4f565b60405180910390f35b6060600260009054906101000a900473ffffffffffffffffffffffffffffffffffffffff1673ffffffffffffffffffffffffffffffffffffffff163373ffffffffffffffffffffffffffffffffffffffff1614610240576040517f08c379a000000000000000000000000000000000000000000000000000000000815260040161023790610b06565b60405180910390fd5b600260009054906101000a900473ffffffffffffffffffffffffffffffffffffffff1673ffffffffffffffffffffffffffffffffffffffff168373ffffffffffffffffffffffffffffffffffffffff16146102d0576040517f08c379a00000000000000000000000000000000000000000000000000000000081526004016102c790610b72565b60405180910390fd5b60005b82518110156103775760008382815181106102f1576102f0610b92565b5b60200260200101519080600181540180825580915050600190039060005260206000200160009091909190915055600180600085848151811061033757610336610b92565b5b6020026020010151815260200190815260200160002060006101000a81548160ff021916908315150217905550808061036f90610bf0565b9150506102d3565b506040518060400160405280600e81526020017f50726f6475637473206164646564000000000000000000000000000000000000815250905092915050565b60016020528060005260406000206000915054906101000a900460ff1681565b60008080549050905090565b60606001600083815260200190815260200160002060009054906101000a900460ff1615610447576040518060400160405280600d81526020017f41757468656e74696361746564000000000000000000000000000000000000008152509050610480565b6040518060400160405280600b81526020017f436f756e7465726665697400000000000000000000000000000000000000000081525090505b919050565b6060600260009054906101000a900473ffffffffffffffffffffffffffffffffffffffff1673ffffffffffffffffffffffffffffffffffffffff163373ffffffffffffffffffffffffffffffffffffffff1614610517576040517f08c379a000000000000000000000000000000000000000000000000000000000815260040161050e90610b06565b60405180910390fd5b6001600083815260200190815260200160002060009054906101000a900460ff16610577576040517f08c379a000000000000000000000000000000000000000000000000000000000815260040161056e90610c84565b60405180910390fd5b60005b60008054905081101561064b57826000828154811061059c5761059b610b92565b5b90600052602060002001540361063857600081815481106105c0576105bf610b92565b5b906000526020600020016000905560006001600085815260200190815260200160002060006101000a81548160ff0219169083151502179055506040518060400160405280600f81526020017f50726f647563742072656d6f7665640000000000000000000000000000000000815250915050610687565b808061064390610bf0565b91505061057a565b506040517f08c379a000000000000000000000000000000000000000000000000000000000815260040161067e90610cf0565b60405180910390fd5b919050565b600260009054906101000a900473ffffffffffffffffffffffffffffffffffffffff1681565b600081815481106106c257600080fd5b906000526020600020016000915090505481565b6000604051905090565b600080fd5b600080fd5b600073ffffffffffffffffffffffffffffffffffffffff82169050919050565b6000610715826106ea565b9050919050565b6107258161070a565b811461073057600080fd5b50565b6000813590506107428161071c565b92915050565b600080fd5b6000601f19601f8301169050919050565b7f4e487b7100000000000000000000000000000000000000000000000000000000600052604160045260246000fd5b6107968261074d565b810181811067ffffffffffffffff821117156107b5576107b461075e565b5b80604052505050565b60006107c86106d6565b90506107d4828261078d565b919050565b600067ffffffffffffffff8211156107f4576107f361075e565b5b602082029050602081019050919050565b600080fd5b6000819050919050565b61081d8161080a565b811461082857600080fd5b50565b60008135905061083a81610814565b92915050565b600061085361084e846107d9565b6107be565b9050808382526020820190506020840283018581111561087657610875610805565b5b835b8181101561089f578061088b888261082b565b845260208401935050602081019050610878565b5050509392505050565b600082601f8301126108be576108bd610748565b5b81356108ce848260208601610840565b91505092915050565b600080604083850312156108ee576108ed6106e0565b5b60006108fc85828601610733565b925050602083013567ffffffffffffffff81111561091d5761091c6106e5565b5b610929858286016108a9565b9150509250929050565b600081519050919050565b600082825260208201905092915050565b60005b8381101561096d578082015181840152602081019050610952565b8381111561097c576000848401525b50505050565b600061098d82610933565b610997818561093e565b93506109a781856020860161094f565b6109b08161074d565b840191505092915050565b600060208201905081810360008301526109d58184610982565b905092915050565b6000602082840312156109f3576109f26106e0565b5b6000610a018482850161082b565b91505092915050565b60008115159050919050565b610a1f81610a0a565b82525050565b6000602082019050610a3a6000830184610a16565b92915050565b610a498161080a565b82525050565b6000602082019050610a646000830184610a40565b92915050565b610a738161070a565b82525050565b6000602082019050610a8e6000830184610a6a565b92915050565b7f4f6e6c7920746865206f776e65722063616e2063616c6c20746869732066756e60008201527f6374696f6e000000000000000000000000000000000000000000000000000000602082015250565b6000610af060258361093e565b9150610afb82610a94565b604082019050919050565b60006020820190508181036000830152610b1f81610ae3565b9050919050565b7f43616c6c6572206973206e6f7420746865206f776e6572000000000000000000600082015250565b6000610b5c60178361093e565b9150610b6782610b26565b602082019050919050565b60006020820190508181036000830152610b8b81610b4f565b9050919050565b7f4e487b7100000000000000000000000000000000000000000000000000000000600052603260045260246000fd5b7f4e487b7100000000000000000000000000000000000000000000000000000000600052601160045260246000fd5b6000610bfb8261080a565b91507fffffffffffffffffffffffffffffffffffffffffffffffffffffffffffffffff8203610c2d57610c2c610bc1565b5b600182019050919050565b7f50726f64756374206e6f7420666f756e64000000000000000000000000000000600082015250565b6000610c6e60118361093e565b9150610c7982610c38565b602082019050919050565b60006020820190508181036000830152610c9d81610c61565b9050919050565b7f50726f64756374206e6f7420666f756e6420696e20746865206c697374000000600082015250565b6000610cda601d8361093e565b9150610ce582610ca4565b602082019050919050565b60006020820190508181036000830152610d0981610ccd565b905091905056fea2646970667358221220d030df1b5783e8a0384d2dc8c5020d5ac764684fd60b20af43fda58acb5672e164736f6c634300080d0033",
  "immutableReferences": {},
  "source": "// SPDX-License-Identifier: MIT\r\npragma solidity >=0.4.22 <0.9.0;\r\n\r\ncontract Company {\r\n    uint256[] public Products; // Made Products public for verification function\r\n\r\n    mapping(uint256 => bool) public hashcodeToTrue; // Made hashcodeToTrue public\r\n\r\n    address public owner;\r\n\r\n    constructor(address _owner) {\r\n        owner = _owner;\r\n    }\r\n\r\n    modifier onlyOwner() {\r\n        require(msg.sender == owner, \"Only the owner can call this function\");\r\n        _;\r\n    }\r\n\r\n    function addProducts(address _ownerAddress, uint256[] memory _products)\r\n        public\r\n        onlyOwner\r\n        returns (string memory)\r\n    {\r\n        require(_ownerAddress == owner, \"Caller is not the owner\");\r\n        \r\n        for (uint256 i = 0; i < _products.length; i++) {\r\n            Products.push(_products[i]);\r\n            hashcodeToTrue[_products[i]] = true;\r\n        }\r\n\r\n        return \"Products added\";\r\n    }\r\n\r\n    function verifyProduct(uint256 _hashcode)\r\n        public\r\n        view\r\n        returns (string memory)\r\n    {\r\n        if (hashcodeToTrue[_hashcode]) {\r\n            return \"Authenticated\";\r\n        } else {\r\n            return \"Counterfeit\";\r\n        }\r\n    }\r\n\r\n    function removeProduct(uint256 _hashcode)\r\n        public\r\n        onlyOwner\r\n        returns (string memory)\r\n    {\r\n        require(hashcodeToTrue[_hashcode], \"Product not found\");\r\n\r\n        for (uint256 i = 0; i < Products.length; i++) {\r\n            if (Products[i] == _hashcode) {\r\n                delete Products[i];\r\n                hashcodeToTrue[_hashcode] = false;\r\n                return \"Product removed\";\r\n            }\r\n        }\r\n\r\n        revert(\"Product not found in the list\");\r\n    }\r\n\r\n    function getProductCount() public view returns (uint256) {\r\n        return Products.length;\r\n    }\r\n}\r\n",
  "sourcePath": "C:\\Users\\HAGAR FODA\\Desktop\\BlockChain - Copy\\contracts\\Company.sol",
  "compiler": {
    "name": "solc",
    "version": "0.8.13+commit.abaa5c0e.Emscripten.clang"
  },
  "schemaVersion": "3.4.16",
  "updatedAt": "2024-05-18T09:26:45.255Z",
  "networkType": "ethereum",
  "devdoc": {
    "kind": "dev",
    "methods": {},
    "version": 1
  },
  "userdoc": {
    "kind": "user",
    "methods": {},
    "version": 1
  }
}