{
  "contractName": "ProductIdentity",
  "abi": [
    {
      "inputs": [],
      "stateMutability": "nonpayable",
      "type": "constructor"
    },
    {
      "anonymous": false,
      "inputs": [
        {
          "indexed": true,
          "internalType": "bytes32",
          "name": "productId",
          "type": "bytes32"
        },
        {
          "indexed": true,
          "internalType": "address",
          "name": "previousOwner",
          "type": "address"
        },
        {
          "indexed": true,
          "internalType": "address",
          "name": "newOwner",
          "type": "address"
        }
      ],
      "name": "ProductTransferred",
      "type": "event"
    },
    {
      "inputs": [],
      "name": "last_completed_migration",
      "outputs": [
        {
          "internalType": "uint256",
          "name": "",
          "type": "uint256"
        }
      ],
      "stateMutability": "view",
      "type": "function",
      "constant": true
    },
    {
      "inputs": [],
      "name": "owner",
      "outputs": [
        {
          "internalType": "address",
          "name": "",
          "type": "address"
        }
      ],
      "stateMutability": "view",
      "type": "function",
      "constant": true
    },
    {
      "inputs": [
        {
          "internalType": "bytes32",
          "name": "",
          "type": "bytes32"
        }
      ],
      "name": "products",
      "outputs": [
        {
          "internalType": "bytes32",
          "name": "productId",
          "type": "bytes32"
        },
        {
          "internalType": "address",
          "name": "manufacturer",
          "type": "address"
        },
        {
          "internalType": "bool",
          "name": "isValid",
          "type": "bool"
        },
        {
          "internalType": "address",
          "name": "currentOwner",
          "type": "address"
        }
      ],
      "stateMutability": "view",
      "type": "function",
      "constant": true
    },
    {
      "inputs": [
        {
          "internalType": "bytes32",
          "name": "_productId",
          "type": "bytes32"
        },
        {
          "internalType": "address",
          "name": "_manufacturer",
          "type": "address"
        }
      ],
      "name": "registerProduct",
      "outputs": [],
      "stateMutability": "nonpayable",
      "type": "function"
    },
    {
      "inputs": [
        {
          "internalType": "bytes32",
          "name": "_productId",
          "type": "bytes32"
        },
        {
          "internalType": "address",
          "name": "_newOwner",
          "type": "address"
        }
      ],
      "name": "transferProductOwnership",
      "outputs": [],
      "stateMutability": "nonpayable",
      "type": "function"
    },
    {
      "inputs": [
        {
          "internalType": "bytes32",
          "name": "_productId",
          "type": "bytes32"
        }
      ],
      "name": "verifyProduct",
      "outputs": [
        {
          "internalType": "bool",
          "name": "",
          "type": "bool"
        }
      ],
      "stateMutability": "view",
      "type": "function",
      "constant": true
    }
  ],
  "bytecode": "0x608060405234801561001057600080fd5b50336000806101000a81548173ffffffffffffffffffffffffffffffffffffffff021916908373ffffffffffffffffffffffffffffffffffffffff160217905550610997806100606000396000f3fe608060405234801561001057600080fd5b50600436106100625760003560e01c8063445df0ac1461006757806379054391146100855780638da5cb5b146100b85780639c070ce4146100d6578063cb61313e146100f2578063eda459651461010e575b600080fd5b61006f61013e565b60405161007c9190610657565b60405180910390f35b61009f600480360381019061009a91906106ad565b610144565b6040516100af9493929190610745565b60405180910390f35b6100c06101c1565b6040516100cd919061078a565b60405180910390f35b6100f060048036038101906100eb91906107d1565b6101e5565b005b61010c600480360381019061010791906107d1565b6103f2565b005b610128600480360381019061012391906106ad565b61054a565b6040516101359190610811565b60405180910390f35b60015481565b60026020528060005260406000206000915090508060000154908060010160009054906101000a900473ffffffffffffffffffffffffffffffffffffffff16908060010160149054906101000a900460ff16908060020160009054906101000a900473ffffffffffffffffffffffffffffffffffffffff16905084565b60008054906101000a900473ffffffffffffffffffffffffffffffffffffffff1681565b600073ffffffffffffffffffffffffffffffffffffffff166002600084815260200190815260200160002060010160009054906101000a900473ffffffffffffffffffffffffffffffffffffffff1673ffffffffffffffffffffffffffffffffffffffff161461028a576040517f08c379a0000000000000000000000000000000000000000000000000000000008152600401610281906108af565b60405180910390fd5b6102926105e5565b8281600001818152505081816020019073ffffffffffffffffffffffffffffffffffffffff16908173ffffffffffffffffffffffffffffffffffffffff168152505060018160400190151590811515815250506000816060019073ffffffffffffffffffffffffffffffffffffffff16908173ffffffffffffffffffffffffffffffffffffffff168152505080600260008581526020019081526020016000206000820151816000015560208201518160010160006101000a81548173ffffffffffffffffffffffffffffffffffffffff021916908373ffffffffffffffffffffffffffffffffffffffff16021790555060408201518160010160146101000a81548160ff02191690831515021790555060608201518160020160006101000a81548173ffffffffffffffffffffffffffffffffffffffff021916908373ffffffffffffffffffffffffffffffffffffffff160217905550905050505050565b3373ffffffffffffffffffffffffffffffffffffffff166002600084815260200190815260200160002060020160009054906101000a900473ffffffffffffffffffffffffffffffffffffffff1673ffffffffffffffffffffffffffffffffffffffff1614610496576040517f08c379a000000000000000000000000000000000000000000000000000000000815260040161048d90610941565b60405180910390fd5b806002600084815260200190815260200160002060020160006101000a81548173ffffffffffffffffffffffffffffffffffffffff021916908373ffffffffffffffffffffffffffffffffffffffff1602179055508073ffffffffffffffffffffffffffffffffffffffff163373ffffffffffffffffffffffffffffffffffffffff16837f2aec68d7e21d2b2b3c0246f4539531f1497e912daff5ebc1e50c4a50cd9a771e60405160405180910390a45050565b60008073ffffffffffffffffffffffffffffffffffffffff166002600084815260200190815260200160002060010160009054906101000a900473ffffffffffffffffffffffffffffffffffffffff1673ffffffffffffffffffffffffffffffffffffffff16141580156105de57506002600083815260200190815260200160002060010160149054906101000a900460ff165b9050919050565b604051806080016040528060008019168152602001600073ffffffffffffffffffffffffffffffffffffffff168152602001600015158152602001600073ffffffffffffffffffffffffffffffffffffffff1681525090565b6000819050919050565b6106518161063e565b82525050565b600060208201905061066c6000830184610648565b92915050565b600080fd5b6000819050919050565b61068a81610677565b811461069557600080fd5b50565b6000813590506106a781610681565b92915050565b6000602082840312156106c3576106c2610672565b5b60006106d184828501610698565b91505092915050565b6106e381610677565b82525050565b600073ffffffffffffffffffffffffffffffffffffffff82169050919050565b6000610714826106e9565b9050919050565b61072481610709565b82525050565b60008115159050919050565b61073f8161072a565b82525050565b600060808201905061075a60008301876106da565b610767602083018661071b565b6107746040830185610736565b610781606083018461071b565b95945050505050565b600060208201905061079f600083018461071b565b92915050565b6107ae81610709565b81146107b957600080fd5b50565b6000813590506107cb816107a5565b92915050565b600080604083850312156107e8576107e7610672565b5b60006107f685828601610698565b9250506020610807858286016107bc565b9150509250929050565b60006020820190506108266000830184610736565b92915050565b600082825260208201905092915050565b7f50726f647563742077697468207468652073616d6520494420616c726561647960008201527f2065786973747300000000000000000000000000000000000000000000000000602082015250565b600061089960278361082c565b91506108a48261083d565b604082019050919050565b600060208201905081810360008301526108c88161088c565b9050919050565b7f596f7520617265206e6f7420746865206f776e6572206f66207468697320707260008201527f6f64756374000000000000000000000000000000000000000000000000000000602082015250565b600061092b60258361082c565b9150610936826108cf565b604082019050919050565b6000602082019050818103600083015261095a8161091e565b905091905056fea26469706673582212209ad6558a139e0c85ec13018cd127627a88569d9ee8d7b5455b8e1dfa238bf9a564736f6c634300080d0033",
  "immutableReferences": {},
  "source": "// SPDX-License-Identifier: MIT\r\npragma solidity >=0.4.22 <0.9.0;\r\n\r\ncontract ProductIdentity {\r\n    address public owner;\r\n    uint public last_completed_migration;\r\n\r\n    constructor () {\r\n        owner = msg.sender;\r\n    }\r\n\r\n    struct Product {\r\n        bytes32 productId; // Unique identifier for the product\r\n        address manufacturer; // Address of the manufacturer\r\n        bool isValid; // Flag to indicate if the product is valid\r\n        address currentOwner; // Address of the current owner of the product\r\n    }\r\n\r\n    mapping(bytes32 => Product) public products;\r\n\r\n    // Event emitted when a product ownership transfer occurs\r\n    event ProductTransferred(bytes32 indexed productId, address indexed previousOwner, address indexed newOwner);\r\n\r\n    // Modifier to restrict access to the owner of the contract\r\n    modifier onlyOwner() {\r\n        require(msg.sender == owner, \"Only contract owner can call this function\");\r\n        _;\r\n    }\r\n\r\n    // Function to register a product\r\n    function registerProduct(bytes32 _productId, address _manufacturer) public {\r\n        require(products[_productId].manufacturer == address(0), \"Product with the same ID already exists\");\r\n\r\n        Product memory newProduct;\r\n        newProduct.productId = _productId;\r\n        newProduct.manufacturer = _manufacturer;\r\n        newProduct.isValid = true;\r\n        newProduct.currentOwner = address(0); // Assuming no initial owner\r\n\r\n        products[_productId] = newProduct;\r\n    }\r\n\r\n    // Function to transfer ownership of a product\r\n    function transferProductOwnership(bytes32 _productId, address _newOwner) public {\r\n        require(products[_productId].currentOwner == msg.sender, \"You are not the owner of this product\");\r\n        products[_productId].currentOwner = _newOwner;\r\n        emit ProductTransferred(_productId, msg.sender, _newOwner);\r\n    }\r\n\r\n    // Function to check if a product is authentic\r\n    function verifyProduct(bytes32 _productId) public view returns (bool) {\r\n        return products[_productId].manufacturer != address(0) && products[_productId].isValid;\r\n    }\r\n\r\n    // Function to mark a product as expired\r\n    // This function is removed\r\n}\r\n",
  "sourcePath": "C:\\Users\\HAGAR FODA\\Desktop\\BlockChain - Copy\\contracts\\ProductIdentity.sol",
  "compiler": {
    "name": "solc",
    "version": "0.8.13+commit.abaa5c0e.Emscripten.clang"
  },
  "schemaVersion": "3.4.16",
  "updatedAt": "2024-05-18T09:26:44.939Z",
  "networkType": "ethereum",
  "devdoc": {
    "kind": "dev",
    "methods": {},
    "version": 1
  },
  "userdoc": {
    "kind": "user",
    "methods": {},
    "version": 1
  }
}